{
	"data": {
		"bytecode": {
			"linkReferences": {},
			"object": "6080604052600a6001553480156013575f80fd5b506040516102f93803806102f98339818101604052810190603391906072565b80805f8190555050506098565b5f80fd5b5f819050919050565b6054816044565b8114605d575f80fd5b50565b5f81519050606c81604d565b92915050565b5f6020828403121560845760836040565b5b5f608f848285016060565b91505092915050565b610254806100a55f395ff3fe608060405234801561000f575f80fd5b506004361061004a575f3560e01c80630dbe671f1461004e5780630e25012b1461006c5780634d47524e146100885780636057d3ee14610092575b5f80fd5b61005661009c565b6040516100639190610105565b60405180910390f35b6100866004803603810190610081919061014c565b6100a1565b005b6100906100bb565b005b61009a6100d5565b005b5f5481565b805f808282546100b191906101a4565b9250508190555050565b60025f808282546100cc91906101a4565b92505081905550565b5f808154809291906100e6906101d7565b9190505550565b5f819050919050565b6100ff816100ed565b82525050565b5f6020820190506101185f8301846100f6565b92915050565b5f80fd5b61012b816100ed565b8114610135575f80fd5b50565b5f8135905061014681610122565b92915050565b5f602082840312156101615761016061011e565b5b5f61016e84828501610138565b91505092915050565b7f4e487b71000000000000000000000000000000000000000000000000000000005f52601160045260245ffd5b5f6101ae826100ed565b91506101b9836100ed565b92508282019050808211156101d1576101d0610177565b5b92915050565b5f6101e1826100ed565b91507fffffffffffffffffffffffffffffffffffffffffffffffffffffffffffffffff820361021357610212610177565b5b60018201905091905056fea2646970667358221220b9b51ac91485e0e7e1f2943f472d019823f9cec95299511800b6ae28a3e8c62264736f6c634300081a0033",
			"opcodes": "PUSH1 0x80 PUSH1 0x40 MSTORE PUSH1 0xA PUSH1 0x1 SSTORE CALLVALUE DUP1 ISZERO PUSH1 0x13 JUMPI PUSH0 DUP1 REVERT JUMPDEST POP PUSH1 0x40 MLOAD PUSH2 0x2F9 CODESIZE SUB DUP1 PUSH2 0x2F9 DUP4 CODECOPY DUP2 DUP2 ADD PUSH1 0x40 MSTORE DUP2 ADD SWAP1 PUSH1 0x33 SWAP2 SWAP1 PUSH1 0x72 JUMP JUMPDEST DUP1 DUP1 PUSH0 DUP2 SWAP1 SSTORE POP POP POP PUSH1 0x98 JUMP JUMPDEST PUSH0 DUP1 REVERT JUMPDEST PUSH0 DUP2 SWAP1 POP SWAP2 SWAP1 POP JUMP JUMPDEST PUSH1 0x54 DUP2 PUSH1 0x44 JUMP JUMPDEST DUP2 EQ PUSH1 0x5D JUMPI PUSH0 DUP1 REVERT JUMPDEST POP JUMP JUMPDEST PUSH0 DUP2 MLOAD SWAP1 POP PUSH1 0x6C DUP2 PUSH1 0x4D JUMP JUMPDEST SWAP3 SWAP2 POP POP JUMP JUMPDEST PUSH0 PUSH1 0x20 DUP3 DUP5 SUB SLT ISZERO PUSH1 0x84 JUMPI PUSH1 0x83 PUSH1 0x40 JUMP JUMPDEST JUMPDEST PUSH0 PUSH1 0x8F DUP5 DUP3 DUP6 ADD PUSH1 0x60 JUMP JUMPDEST SWAP2 POP POP SWAP3 SWAP2 POP POP JUMP JUMPDEST PUSH2 0x254 DUP1 PUSH2 0xA5 PUSH0 CODECOPY PUSH0 RETURN INVALID PUSH1 0x80 PUSH1 0x40 MSTORE CALLVALUE DUP1 ISZERO PUSH2 0xF JUMPI PUSH0 DUP1 REVERT JUMPDEST POP PUSH1 0x4 CALLDATASIZE LT PUSH2 0x4A JUMPI PUSH0 CALLDATALOAD PUSH1 0xE0 SHR DUP1 PUSH4 0xDBE671F EQ PUSH2 0x4E JUMPI DUP1 PUSH4 0xE25012B EQ PUSH2 0x6C JUMPI DUP1 PUSH4 0x4D47524E EQ PUSH2 0x88 JUMPI DUP1 PUSH4 0x6057D3EE EQ PUSH2 0x92 JUMPI JUMPDEST PUSH0 DUP1 REVERT JUMPDEST PUSH2 0x56 PUSH2 0x9C JUMP JUMPDEST PUSH1 0x40 MLOAD PUSH2 0x63 SWAP2 SWAP1 PUSH2 0x105 JUMP JUMPDEST PUSH1 0x40 MLOAD DUP1 SWAP2 SUB SWAP1 RETURN JUMPDEST PUSH2 0x86 PUSH1 0x4 DUP1 CALLDATASIZE SUB DUP2 ADD SWAP1 PUSH2 0x81 SWAP2 SWAP1 PUSH2 0x14C JUMP JUMPDEST PUSH2 0xA1 JUMP JUMPDEST STOP JUMPDEST PUSH2 0x90 PUSH2 0xBB JUMP JUMPDEST STOP JUMPDEST PUSH2 0x9A PUSH2 0xD5 JUMP JUMPDEST STOP JUMPDEST PUSH0 SLOAD DUP2 JUMP JUMPDEST DUP1 PUSH0 DUP1 DUP3 DUP3 SLOAD PUSH2 0xB1 SWAP2 SWAP1 PUSH2 0x1A4 JUMP JUMPDEST SWAP3 POP POP DUP2 SWAP1 SSTORE POP POP JUMP JUMPDEST PUSH1 0x2 PUSH0 DUP1 DUP3 DUP3 SLOAD PUSH2 0xCC SWAP2 SWAP1 PUSH2 0x1A4 JUMP JUMPDEST SWAP3 POP POP DUP2 SWAP1 SSTORE POP JUMP JUMPDEST PUSH0 DUP1 DUP2 SLOAD DUP1 SWAP3 SWAP2 SWAP1 PUSH2 0xE6 SWAP1 PUSH2 0x1D7 JUMP JUMPDEST SWAP2 SWAP1 POP SSTORE POP JUMP JUMPDEST PUSH0 DUP2 SWAP1 POP SWAP2 SWAP1 POP JUMP JUMPDEST PUSH2 0xFF DUP2 PUSH2 0xED JUMP JUMPDEST DUP3 MSTORE POP POP JUMP JUMPDEST PUSH0 PUSH1 0x20 DUP3 ADD SWAP1 POP PUSH2 0x118 PUSH0 DUP4 ADD DUP5 PUSH2 0xF6 JUMP JUMPDEST SWAP3 SWAP2 POP POP JUMP JUMPDEST PUSH0 DUP1 REVERT JUMPDEST PUSH2 0x12B DUP2 PUSH2 0xED JUMP JUMPDEST DUP2 EQ PUSH2 0x135 JUMPI PUSH0 DUP1 REVERT JUMPDEST POP JUMP JUMPDEST PUSH0 DUP2 CALLDATALOAD SWAP1 POP PUSH2 0x146 DUP2 PUSH2 0x122 JUMP JUMPDEST SWAP3 SWAP2 POP POP JUMP JUMPDEST PUSH0 PUSH1 0x20 DUP3 DUP5 SUB SLT ISZERO PUSH2 0x161 JUMPI PUSH2 0x160 PUSH2 0x11E JUMP JUMPDEST JUMPDEST PUSH0 PUSH2 0x16E DUP5 DUP3 DUP6 ADD PUSH2 0x138 JUMP JUMPDEST SWAP2 POP POP SWAP3 SWAP2 POP POP JUMP JUMPDEST PUSH32 0x4E487B7100000000000000000000000000000000000000000000000000000000 PUSH0 MSTORE PUSH1 0x11 PUSH1 0x4 MSTORE PUSH1 0x24 PUSH0 REVERT JUMPDEST PUSH0 PUSH2 0x1AE DUP3 PUSH2 0xED JUMP JUMPDEST SWAP2 POP PUSH2 0x1B9 DUP4 PUSH2 0xED JUMP JUMPDEST SWAP3 POP DUP3 DUP3 ADD SWAP1 POP DUP1 DUP3 GT ISZERO PUSH2 0x1D1 JUMPI PUSH2 0x1D0 PUSH2 0x177 JUMP JUMPDEST JUMPDEST SWAP3 SWAP2 POP POP JUMP JUMPDEST PUSH0 PUSH2 0x1E1 DUP3 PUSH2 0xED JUMP JUMPDEST SWAP2 POP PUSH32 0xFFFFFFFFFFFFFFFFFFFFFFFFFFFFFFFFFFFFFFFFFFFFFFFFFFFFFFFFFFFFFFFF DUP3 SUB PUSH2 0x213 JUMPI PUSH2 0x212 PUSH2 0x177 JUMP JUMPDEST JUMPDEST PUSH1 0x1 DUP3 ADD SWAP1 POP SWAP2 SWAP1 POP JUMP INVALID LOG2 PUSH5 0x6970667358 0x22 SLT KECCAK256 0xB9 0xB5 BYTE 0xC9 EQ DUP6 0xE0 0xE7 0xE1 CALLCODE SWAP5 EXTCODEHASH SELFBALANCE 0x2D ADD SWAP9 0x23 0xF9 0xCE 0xC9 MSTORE SWAP10 MLOAD XOR STOP 0xB6 0xAE 0x28 LOG3 0xE8 0xC6 0x22 PUSH5 0x736F6C6343 STOP ADDMOD BYTE STOP CALLER "
		},
		"gasEstimates": {
			"creation": {
				"codeDepositCost": "119200",
				"executionCost": "infinite",
				"totalCost": "infinite"
			},
			"external": {
				"a()": "2402",
				"addOne()": "24541",
				"addSome(uint256)": "infinite",
				"addTwo()": "infinite"
			}
		},
		"methodIdentifiers": {
			"a()": "0dbe671f",
			"addOne()": "6057d3ee",
			"addSome(uint256)": "0e25012b",
			"addTwo()": "4d47524e"
		}
	},
	"abi": [
		{
			"inputs": [
				{
					"internalType": "uint256",
					"name": "__a",
					"type": "uint256"
				}
			],
			"stateMutability": "nonpayable",
			"type": "constructor"
		},
		{
			"inputs": [],
			"name": "a",
			"outputs": [
				{
					"internalType": "uint256",
					"name": "",
					"type": "uint256"
				}
			],
			"stateMutability": "view",
			"type": "function"
		},
		{
			"inputs": [],
			"name": "addOne",
			"outputs": [],
			"stateMutability": "nonpayable",
			"type": "function"
		},
		{
			"inputs": [
				{
					"internalType": "uint256",
					"name": "some",
					"type": "uint256"
				}
			],
			"name": "addSome",
			"outputs": [],
			"stateMutability": "nonpayable",
			"type": "function"
		},
		{
			"inputs": [],
			"name": "addTwo",
			"outputs": [],
			"stateMutability": "nonpayable",
			"type": "function"
		}
	]
}